:04000000FEEFFFF020
:1040000000A84200000000000000000000000000C6
:1040100000000000000000000000000000000000A0
:104020000000000000000000000000000000000090
:1040300000000000000000000000000000B4430089
:104040009243007043000000000002EC22F0CF50C9
:10405000C398C39AC39EC39CC09CC198C098C09A81
:10406000C398C38AC08CC198020E196E450E186E93
:10407000AA0EE82EFED7182EFCD7192EFAD7C39811
:10408000C39AC39EC39CC09CC198C098C09A020E9C
:10409000196E450E186EAA0EE82EFED7182EFCD704
:1040A000192EFAD7C39EC38CC098C08A020E196E0F
:1040B000450E186EAA0EE82EFED7182EFCD7192E24
:1040C000FAD7C398C39AC39EC39CC09CC198C0989A
:1040D000C09A020E196E450E186EAA0EE82EFED773
:1040E000182EFCD7192EFAD7C388C39AC09CC18852
:1040F000020E196E450E186EAA0EE82EFED7182E67
:10410000FCD7192EFAD7C398C39AC39EC39CC09CF0
:10411000C198C098C09A020E196E450E186EAA0E6C
:10412000E82EFED7182EFCD7192EFAD7C38EC39CC3
:10413000C088C09A020E196E450E186EAA0EE82E9F
:10414000FED7182EFCD7192EFAD7C398C38AC39E60
:10415000C38CC08CC198C098C08A020E196E450EDF
:10416000186EAA0EE82EFED7182EFCD7192EFAD7F5
:10417000C398C39AC39EC39CC09CC198C098C09A60
:10418000020E196E450E186EAA0EE82EFED7182ED6
:10419000FCD7192EFAD7C388C39AC38EC39CC09C80
:1041A000C188C088C09A020E196E450E186EAA0EFC
:1041B000E82EFED7182EFCD7192EFAD727EF20F0BD
:1041C000FEEFFFF0000EBE6E000EBF6E000EC06E62
:1041D000000EC16E000EC26E000EC36EC668F70EF2
:1041E000C76E8F0EC86EEF0EC96E070ECA6E0F0E29
:1041F000CB6E04010069F60E086F8F0E106FEF0E84
:10420000186F070E206F0F0E286F000E016F000E43
:10421000096F000E116F000E196F000E216F000E56
:10422000296F000E0201896F000E886F000E876FE4
:10423000000E866F000E0401026F000E0A6F000E62
:10424000126F000E1A6F000E226F000E2A6F0369A4
:104250000B6913691B69070E236F2B6904690C69CD
:1042600014691C690F0E246F2C69080E0201746F0B
:10427000230E0C6F000E0401056F000E066F000E7A
:10428000076F000E0D6F000E0E6F000E0F6F000E09
:10429000156F000E166F000E176F000E256F000EC3
:1042A000266F000E276F1200000E0201B46F000E81
:1042B000B56F000EB66F000EB76F000EB86F000E30
:1042C000B96F000EBA6F000EBB6F000EBC6F000E10
:1042D000BD6FB00EBE6F800EBF6F080EC06F190E9F
:1042E000C16F000EC26F200EC36F000EC46F000EB0
:1042F000C56F000EC66F000E156E000E166E000E16
:10430000176EDAEC21F0000E156E000E166E000E20
:10431000176EC9EC21F0000E156E000E166E000E21
:10432000176EB8EC21F0000E146E000E136E120022
:10433000D69AAF90D680000E156E000E166E000E47
:10434000176E19EC22F0B490D682000E156E000E96
:10435000166E000E176E12EC22F0B890D684000E86
:10436000156E000E166E000E176E0BEC22F012008A
:10437000155016101710D8B4C0EF21F0C2EF21F07D
:10438000C8EF21F015C501F516C502F517C503F5EF
:104390001200155016101710D8B4D1EF21F0D3EF3A
:1043A00021F0D9EF21F015C504F516C505F517C59F
:1043B00006F51200155016101710D8B4E2EF21F0D0
:1043C000E4EF21F0EAEF21F015C507F516C508F571
:1043D00017C509F51200620E0001AD6F000EAF6F38
:1043E000000EB36F020EB16F000EB06F000EAC6F17
:1043F000120001EE01F1140EEE6AE806FDE1000183
:1044000025EF20F0EBEC21F0E2EC20F054EC21F071
:1044100098EC21F0120015C50AF516C50BF517C565
:104420000CF5120015C50DF516C50EF517C50FF5DF
:10443000120015C510F516C511F517C512F51200B5
:020000040001F9
:04FFFC00F9EF21F008
:020000040020DA
:10000000FF0FFF0FFF0FFF0FFF0FFF0FFF0FFF0F80
:10001000FF0FFF0FFF0FFF0FFF0FFF0FFF0FFF0F70
:10002000FF0FFF0FFF0FFF0FFF0FFF0FFF0FFF0F60
:10003000FF0FFF0FFF0FFF0FFF0FFF0FFF0FFF0F50
:020000040030CA
:10000000FFFC37FF9FFFFFFFFFFFFFFFFFFFFFFF2B
:10001000FFFFFFFFFFFFFFFFFFFFFFFFFFFFFFFFF0
:03002000FFFFFFE0
:00000001FF
